:020000040800F2
:1000000090040020D901000847100008670F00087D
:1000100045100008ED020008B515000800000000BA
:100020000000000000000000000000006B1000084D
:10003000EF02000800000000691000086D100008C1
:10004000F3010008F3010008F3010008F3010008C0
:10005000F3010008F3010008F3010008F3010008B0
:10006000F3010008F3010008F3010008F3010008A0
:10007000F3010008F3010008F3010008F301000890
:10008000F3010008F3010008F3010008F301000880
:10009000F3010008F3010008F3010008F301000870
:1000A000F3010008F3010008F3010008F301000860
:1000B000F3010008F3010008F3010008F301000850
:1000C000F3010008F3010008F3010008F301000840
:1000D000F3010008F3010008F3010008F301000830
:1000E000F3010008F3010008F3010008F301000820
:1000F000F3010008F3010008F3010008F301000810
:10010000F3010008F3010008F3010008F3010008FF
:10011000F3010008F3010008F3010008F3010008EF
:10012000F3010008F3010008F3010008F3010008DF
:10013000F30100080000000000000000F3010008C7
:10014000F3010008F3010008F3010008F3010008BF
:10015000F3010008F3010008F3010008F3010008AF
:10016000F3010008F3010008F3010008F30100089F
:10017000F3010008F3010008F3010008000000008B
:1001800000000000F3010008000000000000000073
:10019000F30100080000000000000000F301000867
:1001A000000000000000000000000000F301000853
:1001B000F3010008F3010008F3010008F30100084F
:1001C000F3010008DFF80CD000F07EF8004800478B
:1001D000651700089004002006488047064800473D
:1001E000FEE7FEE7FEE7FEE7FEE7FEE7FEE7FEE7E7
:1001F000FEE7FEE725110008C50100082DE9F05FC4
:100200000546002092469B46884606468146402485
:100210001BE0284641464746224600F045F8534633
:100220005A46C01A914110D311461846224600F092
:100230002CF82D1A67EB01084F46224601200021B9
:1002400000F023F817EB00094E41201EA4F1010431
:10025000DFDC484631462A464346BDE8F09F30B5CC
:100260000B46014600202022012409E021FA02F574
:100270009D4205D303FA02F5491B04FA02F528440E
:10028000151EA2F10102F1DC30BD202A04DB203A68
:1002900000FA02F1002070479140C2F1200320FAD9
:1002A00003F3194390407047202A04DB203A21FAD7
:1002B00002F00021704721FA02F3D040C2F120027F
:1002C0009140084319467047064C074D06E0E06828
:1002D00040F0010394E8070098471034AC42F6D38D
:1002E000FFF774FFCC170008EC170008FEE7704713
:1002F00070B5044600F0E0F80546601C02D00448E2
:100300000078044400F0D8F8401BA042FAD370BD36
:10031000000000202DE9F84FDFF874B100224FF003
:1003200001084FF0030A4FF00F090BF1040E00BF54
:100330000B6808FA02F42340A3426ED14D68022DE7
:1003400001D0122D0ED1D50800EB850CDCF8205021
:100350005607F70E09FA07F6B5430E69BE402E435D
:10036000CCF82060066855000F790AFA05FC07F002
:10037000030726EA0C06AF40374307604E68012E9C
:1003800005D0022E03D0112E01D0122E0ED1866878
:10039000CF6826EA0C06AF40374387604668A6431D
:1003A0000C79C4F30014944034434460C4688E68EC
:1003B00024EA0C04AE402643C6604C68E40060D5D5
:1003C000344C256845F480452560246822F00305F7
:1003D00004F480440094304C2E19D6F80848950750
:1003E0002F0F09FA07F5AC432C4DA84201D1002587
:1003F0001FE02B4DA84201D101251AE0294DA8424A
:1004000001D1022515E0284DA84201D1032510E0B5
:10041000264DA84202D104250BE032E0244DA8422B
:1004200001D1052505E0234DA84201D1062500E0B4
:100430000725BD402543C6F80858DBF800405D4657
:100440004E689C43F60300D51C432C60DEF8004048
:1004500075464E689C43B60300D51C432C600C4D7A
:1004600008352C684E689C43F60200D51C432C606E
:10047000074D0C352C684E689C43B60200D51C43D2
:100480002C60521C102AFFF453AFBDE8F88F000017
:10049000003C01404438024000300140000002406E
:1004A0000004024000080240000C0240001002401C
:1004B00000140240001802400148806870470000A4
:1004C0000000002002488168027811448160704772
:1004D000000000200B4810B5016841F40071016074
:1004E000016841F480610160016841F4807101603C
:1004F000032000F08BF8002000F006F800F024F84C
:10050000002010BD003C024070B50D4D04464FF474
:100510007A712878B1FBF0F00A490968B1FBF0F074
:1005200000F077FB48B9102C07D200222146501E5C
:1005300000F04CF800206C6070BD012070BD000020
:10054000000000200C0000201F4808B5016841F49D
:1005500080410160006800F4804000901A48001F4C
:10056000016841F080510160006800F08050009007
:10057000032000F04BF8002211466FF00B0000F052
:1005800025F8002211466FF00A0000F01FF8002243
:1005900011466FF0090000F019F800221146501FB3
:1005A00000F014F800221146101F00F00FF800228E
:1005B0001146901E00F00AF80022BDE808401146DE
:1005C000501E00F003B8000044380240F0B40E4B57
:1005D0001B680C46C3F30223C3F10705042D00D9A1
:1005E0000425191D072901D2002300E0DB1E012686
:1005F00006FA05F1491E214099409E40761E16409C
:100600003143F0BC00F020BD0CED00E0064900F0E5
:10061000070208684FF6FF03184040EA0220034A29
:1006200010430860704700000CED00E00000FA0580
:100630002DE9F8431748016841F0805101600068D6
:10064000154F00F08050012600903E64FFF734FF04
:1006500005464FF47A78114C05E000BFFFF72CFFF8
:10066000401B40450DD86068C003F7D57E64FFF796
:1006700023FF0546464607E0FFF71EFF401BB0423A
:1006800002D90320BDE8F88360688003F4D5002018
:10069000F8E700004038024000000E4200700040C1
:1006A0002DE9F0470E46050065D0DFF81481D8F833
:1006B0000000F7B200F00F00B04207D288F80070D7
:1006C000D8F8000000F00F00B04254D128683D4C2B
:1006D000810712D5400703D5206840F4E050206020
:1006E0002878000703D5206840F460402060206827
:1006F000A96820F0F000084320602878C0072DD0BA
:10070000304968680839012812D0022813D003281C
:1007100011D00968890700292DDA216821F0030129
:1007200001432160FFF7C8FE814641F2883A0EE09E
:1007300009688903EFE709688901ECE7FFF7BCFE68
:10074000A0EB0901514502D90320BDE8F0872068DC
:10075000696800F00C00B0EB810FEFD1D8F8001001
:10076000404601F00F01B14207D90770006800F060
:100770000F00B04201D00120E7E72878400705D5F7
:100780002068E96820F4E0500843206028780007DA
:1007900006D52068296920F4604040EAC100206045
:1007A00000F03CF82168084AC1F30311515CC840CD
:1007B000064908600020FFF7A7FE0020C5E70000FB
:1007C000003C024008380240B41700080C0000202A
:1007D00001480068704700000C00002004480549EB
:1007E00000680968044AC1F38221515CC84070471F
:1007F0000C00002008380240C417000804480549CE
:1008000000680968044AC1F34231515CC84070472E
:100810000C00002008380240C4170008224810B518
:10082000006810F00C02214815D02149042A11D08B
:100830001D4C241F082A0FD00C2A0CD122682368D3
:1008400002F03F025B0221D52068C0F38810A0FBB4
:10085000010120E0084610BD2268236802F03F0233
:100860005B0205D52068C0F38810A0FB010104E0FD
:100870002168C1F38811A1FB00010023FFF7BEFC32
:100880002168C1F30141491C49000AE02168C1F314
:100890008811A1FB00010023FFF7B0FC2168C1F320
:1008A0000271B0FBF1F010BD083802400024F400E2
:1008B00040787D012DE9F84F0546DFF828B3007830
:1008C000ABF10407C007A7F1040451D0DBF8001016
:1008D0005846C1F3810101290FD00168C1F381019C
:1008E000022902D13968490207D40068C0F38100A7
:1008F000032809D13868400206D52068800337D51F
:100900006868002872D033E06868B0F5803F10D086
:10091000B0F5A02F206810D020F48030206020682F
:1009200020F4802020606868A8B1FFF7C5FD064666
:100930000DE0206840F48030F4E740F4802020602F
:10094000F7E700BFFFF7B8FD801B642878D8206860
:100950008003F7D50CE0FFF7AFFD064605E000BFCA
:10096000FFF7AAFD801B6428F0D820688003F7D425
:100970002878DFF8749280074FF0000A46D5DBF83C
:100980000010584611F00C0F0FD00168C1F381011F
:10099000022902D13968490207D50068C0F38100F5
:1009A000032809D13868400206D42068800715D58D
:1009B000E86801281AD111E0E868C0B10120C9F83F
:1009C0000000FFF779FD064605E000BFFFF774FD64
:1009D000801B0228BAD820688007F7D520682969CB
:1009E00020F0F80040EAC10020600FE0F7E0C9F80D
:1009F00000A0FFF761FD064605E000BFFFF75CFDC4
:100A0000801B02281CD820688007F7D428780007AC
:100A100027D5DFF8D0817548696908F16C0881B184
:100A200001210160FFF748FD064604E0FFF744FDA1
:100A3000801B022804D8D8F800008007F6D510E003
:100A400089E0C0F800A0FFF737FD064605E000BFCB
:100A5000FFF732FD801B02287DD8D8F80000800700
:100A6000F6D42878400769D55E484FF00008383042
:100A70000068C0000BD45B483830016841F08051F9
:100A8000016000684FF0010800F080500090584E5F
:100A90003068C00511D4306840F480703060FFF7D2
:100AA0000BFD009006E000BFFFF706FD0099401A1D
:100AB000022850D83068C005F6D54A4EA868683676
:100AC00001280FD00528306810D020F001003060D8
:100AD000306820F004003060A868B8B1FFF7ECFC83
:100AE00000900FE0306840F00100F4E740F00400AF
:100AF0003060F7E7FFF7E0FC0099411A41F28830D7
:100B0000814264D830688007F4D50EE0FFF7D4FC4A
:100B1000009007E0FFF7D0FC0099411A41F28830BD
:100B2000814254D830688007F4D4B8F1000F05D062
:100B30002C483830016821F080510160A869A8B3C1
:100B4000DBF80010C1F38101022948D00228C9F85E
:100B500060A005D000E03AE0FFF7AEFC054639E0C2
:100B6000FFF7AAFC064604E0FFF7A6FC801B02285C
:100B70002DD820688001F7D4F5E907010843E9681A
:100B80001C4A490802EB0141AA6841EA8211084364
:100B9000297C40EA0160297D40EA0170386001202B
:100BA000C9F86000FFF788FC054606E015E000BFC5
:100BB000FFF782FC401B022809D820688001F7D586
:100BC0000BE000BFFFF778FC401B022802D903208E
:100BD000BDE8F88F20688001F4D40020F8E70120F8
:100BE000F6E700000838024000004742800E474206
:100BF000007000400000FFFF4FF0E021042808696A
:100C000003D020F004000861704740F00400FAE7C8
:100C1000704710B5401EB0F1807F01D3012010BD98
:100C20004FF0E02460610F21601700F00DFA002002
:100C3000A06107202061002010BD10B5FFF7E8FF7C
:100C400010BD30B590F83820012A20D0012280F85C
:100C50003820022380F8393003685C6824F070047F
:100C60005C6003685C680D682C435C6003689C688A
:100C700024F080049C6003689C6849680C439C6075
:100C800080F83920002180F83810084630BD022055
:100C900030BD10B5040003D094F8390010B107E05E
:100CA000012010BD002084F83800204600F00CF828
:100CB000022084F83900211D206800F05DFA01202F
:100CC00084F83900002010BD08B500680649884244
:100CD00008D10648016841F008010160006800F091
:100CE0000800009008BD0000000C004040380240A1
:100CF000022180F8391001680A6842F001020A6096
:100D0000012180F839100020704770B5044690F832
:100D10003800012817D0012584F83850022084F8C3
:100D200039002068826822F0770222F47F428260D4
:100D30000868502837D00DDC202859D005DC88B34E
:100D4000102841D151E0022070BD302853D04028F6
:100D50003AD13FE060282ED070280BD0B0F5805FEC
:100D600003D0B0F5005F2FD110E02068816821F03A
:100D7000070115E0CB68D1E90121206800F05CFA99
:100D80002168886840F0770088601DE0CB68D1E971
:100D90000121206800F050FA2068816841F4804108
:100DA000816011E01EE0CA684968206800F056FAC8
:100DB0005021206806E0CA684968206800F05FFAA0
:100DC0006021206800F042FA84F83950002084F84D
:100DD000380070BDCA684968206800F03FFA4021B9
:100DE0002068EFE700212068ECE710212068E9E7A0
:100DF00020212068E6E730212068E3E770B5040091
:100E000004D094F83900002510B106E0012070BD2F
:100E100084F83850204600F023F8242084F8390064
:100E20002068C16821F40051C160204600F03AFA00
:100E30002068016921F4904101612068416921F035
:100E40002A0141612068C16841F40051C160E56335
:100E5000202084F8390084F83A00002070BD00009A
:100E600000B500680E4987B0884216D10D48016868
:100E700041F4003101600068694600F400300590DB
:100E80000C2000900220019001200290032003908A
:100E9000072004900448FFF73DFA07B000BD0000AA
:100EA0000044004040380240000002402DE9F84371
:100EB000044690F839001F4616460D46202850D1AA
:100EC000A5B19EB194F8380001284AD0012084F8D9
:100ED00038004FF00008C4F83C80212084F8390025
:100EE000FFF7EAFAA6848146E68426E00120BDE801
:100EF000F883E08C401EE084A0684B46B0F5805F2C
:100F00004FF000024FF080012046009703D000F020
:100F10001FFBE8B90DE000F01BFBC8B92888216869
:100F2000C0F308004860206908B16D1C05E0AD1CE5
:100F300003E0216815F8010B4860E08C0028D8D147
:100F40004B46002240212046009700F001FB08B1EB
:100F50000320CCE7202084F8390084F83880002072
:100F6000C5E70220C3E7FEE7054808B5016841F080
:100F700001010160006800F00100009008BD000060
:100F80003038024010B5174886B015490160592124
:100F90000024C0E90114611EC0E90314FFF779FEC3
:100FA00018B13E2110A000F006FB4FF480500090D5
:100FB00069460C48FFF7A9FE18B144210AA000F0C9
:100FC000FAFA049404A907480594FFF73AFE0028AA
:100FD00003D04B2104A000F0EEFA06B010BD0000D3
:100FE000000C0040140000202E2E2F5372632F742B
:100FF000696D2E63000000000D4810B50B490160BB
:101000004FF4E1314160002181600C22C160C0E9F0
:1010100004128161C161FFF7F1FE002805D0BDE82F
:101020001040422103A000F0C6BA10BD00440040A9
:10103000500000202E2E2F5372632F75736172742F
:101040002E630000FEE770470907090E002806DA44
:1010500000F00F0000F1E02080F8141D704700F14F
:10106000E02080F8001470477047704710B5FFF714
:1010700029FABDE81040FFF7E0BD000030B5274871
:1010800093B00025016841F080510160006800F0D4
:10109000805012902248016841F44041016000688C
:1010A000022400F44040129001200390102004908C
:1010B000009406940820CDE90750B420CDE9090436
:1010C0000B9468460C94FFF7F5FB00B1FEE7FFF7C1
:1010D000AFFA00B1FEE70DA90F2081E831004FF40F
:1010E000A05010904FF48050119005210DA8FFF7EB
:1010F000D7FA00B1FEE7FFF76BFB4FF47A71B0FB54
:10110000F1F0FFF786FD0420FFF776FD002211467F
:10111000501EFFF75BFA13B030BD000040380240AC
:10112000007000401048016841F4700101600F48F0
:10113000016841F0010101600C4A00210832116090
:1011400002680B4B1A400260031D0A4A1A600268CB
:1011500022F48022026005480C30016002495806E2
:10116000803908607047000088ED00E000380240D8
:10117000FFFFF6FE10300024F0B50268234B244D2B
:10118000244E254F254C4FF0804C984209D06045A5
:1011900007D0A84205D0B04203D0B84201D0A04247
:1011A00004D122F0700E4A6842EA0E0298421BD027
:1011B000604519D0A84217D0B04215D0B84213D01C
:1011C000A04211D0164DA8420ED0164DA8420BD009
:1011D000154DA84208D0154DA84205D0144DA8427F
:1011E00002D0144DA84203D122F44075CA682A43A4
:1011F00002608A68C2620A688262984201D0A04294
:1012000001D10969016301214161F0BD0000014084
:101210000004004000080040000C004000040140B1
:1012200000400140004401400048014000180040D7
:10123000001C00400020004010B5846842EA0322F0
:1012400024F47F440A432243826010BD826822F066
:1012500070020A4342F007018160704710B5036ACB
:10126000046A24F001040462846924F0F00444EA6E
:10127000021423F00A020A438461026210BD10B511
:10128000036A23F0100303628369046A23F4704342
:1012900043EA023224F0A00343EA011182610162B1
:1012A00010BD00002DE9F04104460068016921F4F9
:1012B0004052E168114301612168C86849F20C623B
:1012C00090432369A268E5691A4363692B431A4373
:1012D0000243CA602168486920F44072A069104343
:1012E0004861E1696425B1F5004F9748974A216844
:1012F0004FF032083FD0914201D081427CD1FFF7BC
:101300007DFA00EBC00101EB001061688900B0FBC1
:10131000F1F6FFF773FA00EBC00101EB0010616812
:101320008900B0FBF1F0B0FBF5F06FF01801484315
:1013300006EB800108EB0110B0FBF5F000F0F006C1
:10134000FFF75CFA00EBC00101EB00106168890057
:10135000B0FBF1F0B0FBF5F006EB0016FFF74EFA2C
:1013600000EBC00101EB001061688900B0FBF1F7F0
:10137000FFF744FAD2E0914201D081423DD1FFF71C
:101380003DFA00EBC00101EB001061684900B0FBC1
:10139000F1F0B0FBF5F00601FFF730FA00EBC00109
:1013A00001EB001061684900B0FBF1F7FFF726FA86
:1013B00000EBC00101EB001061684900B0FBF1F0E7
:1013C000B0FBF5F06FF01801484307EB800108EB24
:1013D000C100B0FBF5F000F0F80006EB4006FFF7A7
:1013E0000DFA00EBC00101EB001061684900B0FB91
:1013F000F1F7FFF703FA3CE055E0FFF7EFF900EBF8
:10140000C00101EB001061684900B0FBF1F0B0FBD6
:10141000F5F00601FFF7E2F900EBC00101EB001067
:1014200061684900B0FBF1F7FFF7D8F900EBC001A4
:1014300001EB001061684900B0FBF1F0B0FBF5F082
:101440006FF01801484307EB800108EBC100B0FBC7
:10145000F5F000F0F80006EB4006FFF7BFF900EBEF
:10146000C00101EB001061684900B0FBF1F7FFF724
:10147000B5F900EBC00101EB001061684900B0FB59
:10148000F1F0B0FBF5F06FF01801484307EB800175
:1014900008EBC100B0FBF5F000F007002168304414
:1014A0008860BDE8F081FFF799F900EBC00101EB1E
:1014B000001061688900B0FBF1F6FFF78FF900EBCF
:1014C000C00101EB001061688900B0FBF1F0B0FBD6
:1014D000F5F06FF01801484306EB800108EB0110AE
:1014E000B0FBF5F000F0F006FFF778F900EBC00173
:1014F00001EB001061688900B0FBF1F0B0FBF5F082
:1015000006EB0016FFF76AF900EBC00101EB0010D3
:1015100061688900B0FBF1F7FFF760F900EBC001EB
:1015200001EB001061688900B0FBF1F0B0FBF5F051
:101530006FF01801484307EB800108EB0110B0FB86
:10154000F5F000F00F00A9E7001401400010014081
:101550002DE9F041984617460E460446069D1DE0CB
:10156000681C1BD02DB1FEF7A7FFA0EB0800A84216
:1015700014D92068C16821F4D071C1602068416924
:1015800021F001014161202084F8390084F83A00FB
:10159000002084F838000320BDE8F081206800684E
:1015A00036EA000004D00020B842D9D00020F3E78A
:1015B0000120F9E7FEE7FEE70FB4054B10B503A9DC
:1015C000044A029800F018F810BC5DF814FB000003
:1015D0004D1700081000002002E008C8121F08C1C3
:1015E000002AFAD170477047002001E001C1121FA4
:1015F000002AFBD1704700002DE9FF4F89B09B46C0
:101600000446002506E025280BD05A460B99904742
:10161000641C6D1C20780028F5D10DB02846BDE86B
:10162000F08F0027B8460122474900E0074314F82D
:10163000013F203B02FA03F00842F7D120782E2820
:1016400019D114F8010F47F004072A280ED06FF0C3
:101650002F022078A0F1300109290CD808EB88016D
:1016600002EB410100EB0108641CF2E70A98641CDC
:1016700050F8048B0A9020780028CED0642808D037
:10168000692806D075281ED05A460B9990476D1CC4
:1016900058E00A994FF00A0901C90A91002802DAB4
:1016A00040422D2102E0390504D52B218DF8201070
:1016B000012103E0F90704D02021F7E78A4608AEAC
:1016C0000DE00021FAE70A994FF00A0901C90A91D1
:1016D000F7E74946FEF7C3FD303106F8011D002843
:1016E000F7D1ADEB060000F12009780701D44FF0E7
:1016F0000108C84502DDA8EB090000E00020804693
:10170000002706E008A85A46C05D0B9990476D1C5B
:101710007F1C5745F6DB04E030205A460B99904772
:101720006D1CB8F10001A8F10108F5DC05E016F820
:10173000010B5A460B9990476D1CB9F10001A9F1B4
:101740000109F4DC641C65E70928010013B5FF23D7
:10175000012269460248FFF7A9FB00981CBD000062
:1017600050000020FEF7B6FEFFF788FCFFF7FCFBF9
:10177000FFF708FCFFF740FC0948FFF7B9FA09A09A
:10178000FFF71AFF064C2068456A0220FEF7B0FDFD
:101790002068406A411B05A0FFF70EFFFEE700002E
:1017A00014000020746573740D0A000025647573BD
:1017B0000D0A000000000000000000000102030408
:1017C000060708090000000001020304EC170008E6
:1017D0000000002014000000D815000800180008C0
:1017E000140000207C040000E8150008010000003F
:1017F00010000000000000000024F40000000000C1
:04000005080001C529
:00000001FF
